:100000000C94C1000C9404010C94E9000C94E900D8
:100010000C94E9000C94E9000C94E9000C94E900BC
:100020000C94E9000C94E9000C94E9000C94000A8B
:100030000C94E9000C94E9000C94E9000C94E9009C
:100040000C945C040C94E9000C94E9000C94E90015
:100050000C94E90005A84CCDB2D44EB93836A902AB
:100060000C50B9918688083CA6AAAA2ABE000000B6
:10007000803F44544D46204465636F64657220564A
:10008000305F303850000600FF0901A1011500263D
:10009000FF0075089508090082020195200900B249
:1000A0000201C009022200010100807D0904000054
:1000B0000103000000092101010001221D000705C4
:1000C00081030800641201100100000008C016DF5F
:1000D0000500010102000114034400610074006185
:1000E00000530074006F007200650012036F00621D
:1000F000006400650076002E0061007400040309AE
:1001000004000000020000000000000000050400E0
:1001100007000000000000000000000000000000D8
:100120000001020408102040800102040810204051
:1001300080010204081020408001020408102040C1
:100140008002020202020202020404040404040403
:10015000040303030303030303010101010101017C
:10016000010000390036003300300000003B003849
:10017000003500320000003A003700340031000042
:10018000570311241FBECFE5D8E0DEBFCDBF10E07E
:10019000A0E6B0E0ECEFF0E202C005900D92AA3AC2
:1001A000B107D9F722E0AAEAB0E001C01D92A7305A
:1001B000B207E1F710E0C1ECD0E004C02197FE01E6
:1001C0000E94440EC03CD107C9F70E94F1090C946B
:1001D0007C100C940000A82FB92F80E090E041E043
:1001E00050EA609530E009C02D9182279795879558
:1001F00010F084279527305EC8F36F5FA8F3089549
:10020000EADF8D939D930895CF93CFB7CF93DF937C
:10021000C395849BE9F7849B0BC0849B09C0849B96
:1002200007C0849B05C0849B03C0849B01C08BC016
:100230006F93C091E601DD27C351DE4F2F9365E533
:10024000849B03C02F916F91E6CF0F931F934F9321
:1002500020E040E15F9300B3047104FB27F93F9372
:1002600050E03BE039C0147140642F77012F5F5F8D
:100270001EC0406810B314712F7752501FC04064E5
:1002800000B32F770471D1F15F5F00C023C04062DB
:1002900010B32F77147191F15F5F00C025C0047116
:1002A0001027515012F45D5F0000115027952C3F2C
:1002B00010B3C8F614710127015027952C3FC8F6DA
:1002C0004227499300B3047110274F7311502795AB
:1002D0002C3FA8F64695469510B3147179F0012786
:1002E000015027952C3F98F66B5A60F3315000B3BC
:1002F000B0F600C010E41ABF002719C03B5031957A
:10030000C31BD04010E41ABF0881033C09F10B3431
:10031000F9F02091E4011981110F1213EDCF4A81F8
:10032000441F093651F10D3211F0013E29F70093B7
:10033000EB013F915F914F911F910F912F916F9121
:10034000CAB7C6FD65CFDF91CF91CFBFCF911895CA
:100350002091EB01222369F31091E901112391F51A
:10036000343092F13093E9012093E5011091E601D8
:100370003BE0311B3093E60127C00091E9010130D9
:100380000CF50AE54F7049F43091670034FD1DC04B
:1003900000936700CDECD1E01CC03091D80134FD52
:1003A00014C00093D801C9EDD1E013C0052710E0B7
:1003B00000C0000002BB1AC0052710E0221F1DC0AC
:1003C00010E021C04AE502C032ED432FC4E1D0E085
:1003D00032E011B31461949A02B311BB54E120E8E6
:1003E00065E320FF052702BB279517951C3FF0F614
:1003F0006695B8F7B1F720FF052702BB279517953B
:100400001C3FD0F62795179517FF052700001C3FC6
:1004100002BBB0F629913A9519F70B7E1091EA01CB
:10042000110FC651D04002BB11F01093E40110E44B
:100430001ABF006111B31B7E402F4B7E54E05A95CA
:10044000F1F702BB11BB42BB74CFCF93DF93EC013A
:1004500018828FEF89838A831B8280E090E0AAEF65
:10046000B3E48C839D83AE83BF8380E895E2998754
:10047000888781E08A8740E050E267E974E4CE0132
:10048000855B9F4F0E949E0440E050E067EA74E461
:10049000CE01855A9F4F0E949E0440E050EA68EBCF
:1004A00074E4CE0185599F4F0E949E0440E050E2C3
:1004B0006CEC74E4CE0185589F4F0E949E0440E08E
:1004C00050E46EE274E4CE0185579F4F0E949E0473
:1004D00040E050E860E474E4CE0185569F4F0E94EE
:1004E0009E0440E050E065E574E4CE0185559F4FE1
:1004F0000E949E0440E050E46BE674E4CE01855413
:100500009F4F0E949E04DE01A553BF4F80E1E8E6A5
:10051000F0E001900D928A95E1F7DF91CF91089577
:1005200061E08FE00E948E0A0E9433060E944A0A10
:10053000603D77408105910518F40E944806F6CF8A
:1005400062E770E089E891E00E9475088EEA90E029
:100550000E945F0368E770E089E891E00E949908D3
:1005600088E19FE00FB6F894A89581BD0FBE91BDBC
:100570000895CF92DF92EF92FF92CF93DF93CDB7A2
:10058000DEB72C970FB6F894DEBF0FBECDBF68EA7A
:1005900070E0CE0107960E9420090E944A0A6B0172
:1005A0007C010E944A0A6C197D098E099F096A3FE5
:1005B00071058105910568F5A8950E9448066EEAC7
:1005C00070E0CE0101960E94820368EA70E0CE01DD
:1005D00001960E94D309811117C00E944A0A6B013B
:1005E0007C01BE016F5F7F4FCE0107960E94CC0950
:1005F0008B859C856BE870E0019711F066E970E0EF
:1006000089E891E00E946908CE0101960E94B10834
:10061000C8CF68EA70E0CE0107960E94D309811125
:100620000DC068EA70E089E891E00E949908BE0177
:10063000695F7F4F89E891E00E9487080E944A0A1B
:10064000C090AA00D090AB00E090AC00F090AD005C
:100650006C197D098E099F09613D774081059105DF
:10066000A0F00E944A0A6093AA007093AB008093A6
:10067000AC009093AD008FE00E94F80A61E0892BF6
:1006800009F060E08FE00E94CA0AA895CE010796A3
:100690000E94B1082C960FB6F894DEBF0FBECDBFF6
:1006A000DF91CF91FF90EF90DF90CF90089589E890
:1006B00091E00E942B068EEA90E00C9425020F93A5
:1006C0001F93CF93DF93EC014885598560E470E078
:1006D0000B960E94A4048E01055B1F4FC557DF4F88
:1006E000C8010E94CD04C801805C9F4F0E94CD04C8
:1006F000005F1F4F0C171D0799F7DF91CF911F91D6
:100700000F9108952F923F924F925F926F927F9236
:100710008F929F92AF92BF92CF92DF92EF92FF9211
:100720000F931F93CF93DF93CDB7DEB72B970FB601
:10073000F894DEBF0FBECDBF6C018B0168EA70E09C
:100740000E94200980918F01882309F48AC0480102
:100750008BE4880E911CE12CBB24BA9419861A866E
:100760001B86F12C9FEF9F83612C712CA12C188686
:10077000C4010E94FF041B012C0193014A2D5885DE
:100780000E94FB0C181624F4EF823101A42C588629
:10079000C401805C9F4F0E94FF041B012C0129852E
:1007A0003A854B855F2D0E94FB0C18162CF4BE2C4D
:1007B00029863A864B86F52CE0E18E0E911CE39457
:1007C000F4E0EF12D5CFF8012480358046805780C1
:1007D00093014A2D5885C201B1010E948E0B87FFFB
:1007E00065C029853A854B855F2DC201B1010E9404
:1007F0008E0B87FF5BC0F8018181FF818F134BC097
:10080000F80182818B1147C080818F3F11F08F5F8B
:1008100080838F81F8018183B282908182859813D1
:100820003DC09F8184E09802F0011124E00FF11F88
:10083000EB0DF11DB7FCFA95E553FF4F6081CE013A
:1008400001960E943F09BE016F5F7F4FC6010E9463
:100850009409CE0101960E94B108F801138210920A
:100860008F01C6012B960FB6F894DEBF0FBECDBF29
:10087000DF91CF911F910F91FF90EF90DF90CF907C
:10088000BF90AF909F908F907F906F905F904F90B0
:100890003F902F900895F8011082BBCF9817F8F67B
:1008A00083818F3FE1F28F5F8383D9CF8FEFF80190
:1008B000818382831082D3CF1F920F920FB60F9243
:1008C00011242F933F934F935F938F939F93EF93B5
:1008D000FF9380918F0181111AC080918D019091B9
:1008E0008E01209192013091930182179307F0F4C9
:1008F00025B1E0919401F0919501AC014F5F5F4FFC
:1009000050938E0140938D01E80FF91F208380E200
:1009100088BFFF91EF919F918F915F914F913F9190
:100920002F910F900FBE0F901F90189581E080932C
:100930008F0110928E0110928D01E9CFFC0140834E
:1009400051836283738308959093950180939401FA
:1009500070939301609392015093910140939001A1
:10096000F8941FBC89E18EBD2091900130919101D6
:1009700050E040E060E074E284EF90E00E94250ED9
:100980002150310937BD26BD80E487B93D9A80EEFC
:1009900080BF8BEE86B978940895CF92DF92EF9264
:1009A000FF92CF93DF93EC012BED3FE049EC50E455
:1009B000688179818A819B810E94000D6B017C0195
:1009C000609190017091910190E080E00E940A0C8A
:1009D0009B01AC01C701B6010E94980B0E94930BCA
:1009E0009B01AC010E94220B6C837D838E839F83CD
:1009F000DF91CF91FF90EF90DF90CF9008952F92ED
:100A00003F924F925F926F927F928F929F92AF929E
:100A1000BF92CF92DF92EF92FF920F931F93CF93EB
:100A2000DF9300D000D000D0CDB7DEB79E838D839A
:100A3000DC011C961D921D921D921C921F97FC01B9
:100A400010861186128613860091940110919501EB
:100A50002090920130909301200E311E14968D91BA
:100A60009D910D90BC91A02D89839A83AB83BC830B
:100A7000ED81FE8180849184A284B384A5019401D8
:100A800069817A818B819C810E94000D2B013C0140
:100A9000AD81BE811C96CD90DD90ED90FC901F97AE
:100AA0002016310631F1F80161918F011C968D926B
:100AB0009D92AD92BC921F976058770B072E000C49
:100AC000880B990B0E940C0C4B015C01A70196014D
:100AD000C301B2010E94210B9B01AC01C501B4010D
:100AE0000E94220BED81FE81608771878287938748
:100AF000BFCFA5019401C501B4010E94000D4B01B7
:100B00005C01A7019601C701B6010E94000D9B017F
:100B1000AC01C501B4010E94220B4B015C01A7018D
:100B20009601C301B2010E94000D9B01AC01C501F9
:100B3000B4010E94210B26960FB6F894DEBF0FBEBB
:100B4000CDBFDF91CF911F910F91FF90EF90DF907C
:100B5000CF90BF90AF909F908F907F906F905F905D
:100B60004F903F902F900C94730D90E080E008958B
:100B70000895CF93C62F8091D80184FD03C00E94B1
:100B8000E106F9CFEAEBF1E088E0DF011D928A95FA
:100B9000E9F7C093BA0168E0CF010E94BE0681E088
:100BA00090E0CF91089580E00895CF93DF93EC011A
:100BB0008091990181112BC090919801292F69177B
:100BC00008F4262F921B90939801E0919601F091E2
:100BD0009701DE0130E0AD014C1B5D0B421753075E
:100BE00034F44D914423B9F340833196F4CFF0931C
:100BF0009701E093960191110BC081E08093C201AF
:100C0000CF0101969093970180939601108281E025
:100C1000DF91CF910895FC018281809399019081A9
:100C200090769032B1F48181813011F48FEF089584
:100C3000893079F42AE931E03093970120939601C5
:100C40008681813218F480939801F0CF90939801B7
:100C5000EDCF80E00895FC01138212822EE930E08E
:100C6000318320830895F8948E98969880E081507F
:100C700039F0EFE9FFE03197F1F700C00000F7CF5E
:100C80008E9A969A0E941B0878941092C201089539
:100C90000C94E1060F931F93CF93DF93D62FC72FAA
:100CA0008A018091D80184FD03C00E94E106F9CF3A
:100CB000EAEBF1E088E0DF011D928A95E9F7ED2F7C
:100CC000FC2FAAEBB1E0D0E0C0E00C171D0749F003
:100CD000CE0101968930910521F021912D93EC01EF
:100CE000F4CF68E08AEB91E00E94BE06CE01DF916E
:100CF000CF911F910F9108959F92AF92BF92CF9283
:100D0000DF92EF92FF920F931F93CF93DF937C01BB
:100D10006B015A018A0193E0169507959A95E1F7C0
:100D20000F5F1F4F912CD0E0C0E0692D70E0CE0125
:100D300060177107B8F40896A5014C1B5D0BA81647
:100D4000B90610F048E050E083E0660F771F8A95FF
:100D5000E1F76C0D7D1DC7010E944A06C80FD91F1F
:100D60009394E3CFDF91CF911F910F91FF90EF907C
:100D7000DF90CF90BF90AF909F900895CF93C62FF4
:100D80002091D80124FF19C02091D90138E82327E8
:100D90002093D9012C2FFC01AAEDB1E081918D9314
:100DA00021501216DCF36C2F8AED91E00E940001B5
:100DB000CC5FC093D801CF9108952AE52093D80144
:100DC000E9CFCF93DF936091E901635067FDACC039
:100DD0008091E601CCE0D0E0C81BD109C351DE4FC1
:100DE0008091E5018D3209F0DDC0683009F09AC0CC
:100DF00083EC8093CD018AE5809367001092C30154
:100E00008881807679F0CE010E940B068F3F09F42D
:100E100081C09F81911184C09E81981708F080C085
:100E2000892F7EC02A811092D601998191110AC022
:100E30001092D70126ED31E082E03093E801209353
:100E4000E701E7CF953029F42093EA0126ED31E060
:100E5000F4CF963009F047C09B81913041F485EC86
:100E600090E09093E8018093E70182E109C092301D
:100E700059F483EA90E09093E8018093E70182E2DD
:100E800090E49093C301C5CF9330C9F4211108C0F9
:100E90008DEF90E09093E8018093E70184E0F0CF3C
:100EA000213019F48BEE90E0DCCF223049F787ED4A
:100EB00090E09093E8018093E70184E1E1CF9132E3
:100EC00041F485EB90E09093E8018093E70189E09D
:100ED000D7CF9232A9F686E890E09093E80180930C
:100EE000E7018DE1CDCF983071F0993019F420935E
:100EF000EC01ACCF9A3059F09B3009F0A7CF9BE4BE
:100F00009093D901A3CF2CEE31E081E096CF26ED6E
:100F100031E0FBCF988197FD8E8190E89093C301DB
:100F2000809366001092E9018091670084FF2DC0D4
:100F3000C0916600CF3F49F16C2FC93008F068E0DE
:100F40008C2F861B809366008091CD0198E88927BD
:100F50008093CD01CC2361F08091C30187FF35C020
:100F60008EEC91E00E94D305C82F893008F05EC056
:100F70006C2F8EEC91E00E940001CC5FCC3019F018
:100F80008FEF80936600C093670084E190B3947103
:100F900031F48150D9F71092EA011092E401DF9107
:100FA000CF9108958091C30187FFBCCFCE010E94ED
:100FB000D5058F3F21F48EE180936700B3CF88235E
:100FC00009F4B0CF10926600ADCF2091E7013091C7
:100FD000E801A9014D5C514086FF1BC0ADECB1E0BA
:100FE000962FFA01EA0FFB1FE4911196EC931197EB
:100FF000915011969111F5CF2F5F3F4F8FEF860FD4
:10100000820F932F911D9093E8018093E701C62FE3
:10101000AFCFEDECF1E0962FDA01AE0FBF1F8C9150
:101020008183915031969111F7CFE6CF8FEF809366
:101030006600CEE1A8CF85B7826085BF8BB780649C
:101040008BBFE8EDF1E08BE481838AE5808308952E
:10105000FB0101900020E9F73197AF01461B570BC8
:10106000DC01ED91FC910280F381E02D0994EF9277
:10107000FF920F931F93CF93DF938C017B01D0E0FE
:10108000C0E0F701EC0FFD1F6491662361F0D80109
:10109000ED91FC910190F081E02DC8010995892B1B
:1010A00011F02196EECFCE01DF91CF911F910F91DC
:1010B000FF90EF900895DB0114964D915C91159788
:1010C0006D917C91DC01ED91FC910280F381E02D2A
:1010D00009946115710511F00C94280890E080E0E6
:1010E000089566EA70E00C9428080F931F93CF933D
:1010F000DF93EC010E9437088C01CE010E94710839
:10110000800F911FDF91CF911F910F9108950F9341
:101110001F93CF93DF93EC010E945B088C01CE01FB
:101120000E947108800F911FDF91CF911F910F9145
:1011300008950F931F93CF93DF938C01D0E0C0E00D
:101140006115710519F00E942808EC01C8010E9480
:1011500071088C0F9D1FDF91CF911F910F91089502
:101160000895FC01808191810C94E60ECF93DF936A
:10117000EC0188819981009711F00E94E60E198296
:1011800018821D821C821B821A82DF91CF910895E2
:101190000F931F93CF93DF93EC018B016F5F7F4F12
:1011A000888199810E946F0F009751F099838883FD
:1011B0001B830A8381E0DF91CF911F910F910895E6
:1011C00080E0F9CFCF93DF93EC0188819981892B5F
:1011D00049F08A819B818617970720F081E0DF9193
:1011E000CF910895CE010E94C8088823C1F38C8155
:1011F0009D81892B99F7E881F9811082EFCFEF92D9
:10120000FF920F931F93CF93DF93EC017B018A0131
:10121000BA010E94E20881110BC0CE010E94B608FB
:10122000CE01DF91CF911F910F91FF90EF90089524
:101230001D830C83B701888199810E943E10F0CFF5
:10124000FC011182108213821282158214826115B0
:10125000710551F0FB0101900020E9F73197AF01D2
:10126000461B570B0C94FF080895FB0101900020CA
:10127000E9F73197AF01461B570B0C94FF08CF934A
:10128000DF9300D0CDB7DEB7FC011182108213824C
:1012900012821582148269831A82BE016F5F7F4FAA
:1012A0000E9435090F900F90DF91CF9108950F9311
:1012B0001F93CF93DF938C01EB01FC01808191811F
:1012C000009701F16881798161157105C9F020EB02
:1012D00038E0232BA9F0428153812C813D814217B4
:1012E000530770F00E943E108C819D81F801958318
:1012F00084831D821C82DF91CF911F910F910895ED
:101300000E94E60E88819981F801918380838A8109
:101310009B81938382838C819D81958384831982B1
:1013200018821B821A82E5CFCF93DF93EC016817F6
:10133000790711F00E945709CE01DF91CF910895EE
:10134000EF92FF920F931F93CF93DF936115710577
:1013500041F480E0DF91CF911F910F91FF90EF90CA
:10136000089541155105B1F07B01EC010C811D81FF
:10137000040F151FB8010E94E208882351F3288149
:1013800039818C819D81B701820F931F0E943E108D
:101390001D830C8381E0DECFFB0144815581608198
:1013A00071810C94A009FC0124813581232B31F437
:1013B00021E0FB01672B49F4822F08958081918100
:1013C0006115710539F421E0FC0180818823A1F3C6
:1013D00020E0F2CF0E94351021E0892B69F3F8CF8D
:1013E00008950E94560A0E94F0090E949002C0E0EF
:1013F000D0E00E94B9022097E1F30E940000F9CFEB
:101400001F920F920FB60F9211242F933F938F9339
:101410009F93AF93BF938091C9019091CA01A0910E
:10142000CB01B091CC013091C80123E0230F2D37BF
:1014300068F126E8230F0296A11DB11D2093C80173
:101440008093C9019093CA01A093CB01B093CC01C2
:101450008091C4019091C501A091C601B091C701CE
:101460000196A11DB11D8093C4019093C501A09365
:10147000C601B093C701BF91AF919F918F913F91EA
:101480002F910F900FBE0F901F9018950196A11DE0
:10149000B11DD4CF2FB7F8946091C9017091CA01E2
:1014A0008091CB019091CC012FBF0895789483B7A0
:1014B000836083BF83B7886483BF89B7816089BF36
:1014C00082E08EBD8EB581608EBD8FB581608FBD8F
:1014D00085B5846085BD85B5806485BD87E886B99E
:1014E0001AB80895843059F028F4813099F0823088
:1014F00089F00895853039F0873041F008958FB52F
:101500008F778FBD08958FB58F7DFBCF85B58F7D8C
:1015100085BD089583B78F7D83BF0895CF93DF93F3
:1015200090E0FC01EF5DFE4F24918F5B9E4FFC012C
:1015300084918823C9F090E0880F991FFC01EB5833
:10154000FE4FA591B491FC01E559FE4FC591D49190
:1015500061110DC09FB7F8948C91209582238C93D4
:101560008881282328839FBFDF91CF91089562301F
:1015700051F49FB7F8943C91822F809583238C93EC
:10158000E8812E2BEFCF8FB7F894EC912E2B2C9374
:101590008FBFEACF1F93CF93DF93282F30E0F9015D
:1015A000EF5FFE4F8491F901EF5DFE4FD491F90199
:1015B000EF5BFE4FC491CC23A9F0162F81110E943E
:1015C000720AEC2FF0E0EE0FFF1FE559FE4FA591D8
:1015D000B4918FB7F894EC91111108C0D095DE2327
:1015E000DC938FBFDF91CF911F910895DE2BF8CF51
:1015F000CF93DF93282F30E0F901EF5FFE4F849106
:10160000F901EF5DFE4FD491F901EF5BFE4FC491FC
:10161000CC23A1F081110E94720AEC2FF0E0EE0FB2
:10162000FF1FEF59FE4FA591B491EC91ED2381E09E
:1016300090E009F480E0DF91CF91089580E090E0A0
:10164000FACF5058BB27AA270E94390B0C94AD0C37
:101650000E94740C38F00E947B0C20F039F49F3FFC
:1016600019F426F40C94710C0EF4E095E7FB0C943D
:101670006B0CE92F0E94D20C58F3BA17620773075C
:101680008407950720F079F4A6F50C94F40C0EF479
:10169000E0950B2EBA2FA02D0B01B90190010C0182
:1016A000CA01A0011124FF27591B99F0593F50F49A
:1016B000503E68F11A16F040A22F232F342F4427F2
:1016C000585FF3CF469537952795A795F0405395EA
:1016D000C9F77EF41F16BA0B620B730B840BBAF0BA
:1016E0009150A1F0FF0FBB1F661F771F881FC2F725
:1016F0000EC0BA0F621F731F841F48F48795779539
:101700006795B795F7959E3F08F0B0CF9395880FF2
:1017100008F09927EE0F9795879508950E94470C3A
:1017200008F481E008950E94840CE3950C94BE0CAB
:101730000E94AC0B0C94AD0C0E947B0C58F00E94E4
:10174000740C40F029F45F3F29F00C946B0C51119C
:101750000C94F50C0C94710C0E94D20C68F3992334
:10176000B1F3552391F3951B550BBB27AA2762179D
:101770007307840738F09F5F5F4F220F331F441FAA
:10178000AA1FA9F335D00E2E3AF0E0E832D09150DE
:101790005040E695001CCAF72BD0FE2F29D0660FCB
:1017A000771F881FBB1F261737074807AB07B0E80E
:1017B00009F0BB0B802DBF01FF2793585F4F3AF014
:1017C0009E3F510578F00C946B0C0C94F50C5F3F28
:1017D000E4F3983ED4F3869577956795B795F7959A
:1017E0009F5FC9F7880F911D9695879597F9089582
:1017F000E1E0660F771F881FBB1F6217730784071E
:10180000BA0720F0621B730B840BBA0BEE1F88F72C
:10181000E0950895E89409C097FB3EF49095809573
:10182000709561957F4F8F4F9F4F9923A9F0F92FA6
:1018300096E9BB279395F695879577956795B79524
:10184000F111F8CFFAF4BB0F11F460FF1BC06F5F0A
:101850007F4F8F4F9F4F16C0882311F096E911C01C
:10186000772321F09EE8872F762F05C0662371F03D
:1018700096E8862F70E060E02AF09A95660F771F51
:10188000881FDAF7880F9695879597F90895990F2D
:101890000008550FAA0BE0E8FEEF16161706E8073A
:1018A000F907C0F012161306E407F50798F0621B5B
:1018B000730B840B950B39F40A2661F0232B242B30
:1018C000252B21F408950A2609F4A140A6958FEF4F
:1018D000811D811D089597F99F6780E870E060E0A1
:1018E00008959FEF80EC089500240A9416161706B9
:1018F00018060906089500240A9412161306140601
:10190000050608950C94710C0E94DA0CD8F3E89443
:10191000E0E0BB279F57F0F02AED3FE049EC06C01E
:10192000EE0FBB0F661F771F881F28F0B23A6207C1
:101930007307840728F0B25A620B730B840BE3958C
:101940009A9572F7803830F49A95BB0F661F771F0F
:10195000881FD2F790480C94B50D092E0394000C03
:1019600011F4882352F0BB0F40F4BF2B11F460FF39
:1019700004C06F5F7F4F8F4F9F4F0895EF93E0FF3D
:1019800007C0A2EA2AED3FE049EC5FEB0E94390B69
:101990000E94AD0C0F90039401FC9058E4E5F0E038
:1019A0000C94C80D57FD9058440F551F59F05F3FD8
:1019B00071F04795880F97FB991F61F09F3F79F071
:1019C00087950895121613061406551FF2CF4695F3
:1019D000F1DF08C0161617061806991FF1CF869575
:1019E0007105610508940895E894BB276627772759
:1019F000CB0197F908950E94470C08F48FEF0895E2
:101A00000E94130D0C94AD0C0E94740C38F00E94CF
:101A10007B0C20F0952311F00C946B0C0C94710C42
:101A200011240C94F50C0E94D20C70F3959FC1F315
:101A3000950F50E0551F629FF001729FBB27F00D7C
:101A4000B11D639FAA27F00DB11DAA1F649F6627D1
:101A5000B00DA11D661F829F2227B00DA11D621F20
:101A6000739FB00DA11D621F839FA00D611D221FDA
:101A7000749F3327A00D611D231F849F600D211DBE
:101A8000822F762F6A2F11249F5750409AF0F1F041
:101A900088234AF0EE0FFF1FBB1F661F771F881FAA
:101AA00091505040A9F79E3F510580F00C946B0C6B
:101AB0000C94F50C5F3FE4F3983ED4F3869577954C
:101AC0006795B795F795E7959F5FC1F7FE2B880F50
:101AD000911D9695879597F9089519F416F40C942D
:101AE000710C0C94B30D0E94DA0CB8F39923C9F36E
:101AF000B6F39F57550B87FF0E94C10D0024A0E647
:101B000040EA900180585695979528F4805C660FBE
:101B1000771F881F20F026173707480730F4621B0D
:101B2000730B840B202931294A2BA695179407940F
:101B3000202531254A2758F7660F771F881F20F088
:101B400026173707480730F4620B730B840B200D00
:101B5000311D411DA09581F7B901842F9158880F3F
:101B60009695879508959F3F31F0915020F4879581
:101B700077956795B795880F911D9695879597F9F5
:101B8000089591505040660F771F881FD2F708952F
:101B90009F938F937F936F93FF93EF939B01AC0180
:101BA0000E94000DEF91FF910E94DC0D2F913F915B
:101BB0004F915F910C94000DDF93CF931F930F9380
:101BC000FF92EF92DF927B018C01689406C0DA2EBF
:101BD000EF010E94130DFE01E894A5912591359126
:101BE00045915591A6F3EF010E94390BFE01970133
:101BF000A801DA9469F7DF90EF90FF900F911F91A1
:101C0000CF91DF910895A1E21A2EAA1BBB1BFD0103
:101C10000DC0AA1FBB1FEE1FFF1FA217B307E407CB
:101C2000F50720F0A21BB30BE40BF50B661F771F23
:101C3000881F991F1A9469F7609570958095909503
:101C40009B01AC01BD01CF010895052E97FB1EF449
:101C500000940E943C0E57FD07D00E94030E07FC23
:101C600003D04EF40C943C0E509540953095219540
:101C70003F4F4F4F5F4F08959095809570956195B8
:101C80007F4F8F4F9F4F0895EE0FFF1F0590F491E8
:101C9000E02D09940F931F93CF93DF93823091052A
:101CA00010F482E090E0E0910502F091060230E04D
:101CB00020E0B0E0A0E0309799F42115310509F457
:101CC0004AC0281B390B24303105D8F58A819B8105
:101CD0006115710589F1FB0193838283FE0111C0B7
:101CE000408151810281138148175907E0F048175C
:101CF000590799F4109761F012960C931297139666
:101D00001C933296CF01DF91CF911F910F910895CF
:101D10000093050210930602F4CF2115310551F00E
:101D20004217530738F0A901DB019A01BD01DF0119
:101D3000F801C1CFEF01F9CF90930602809305021D
:101D4000CDCFFE01E20FF31F819391932250310911
:101D500039832883D7CF2091030230910402232BAB
:101D600041F420916200309163003093040220938B
:101D7000030220916000309161002115310541F48A
:101D80002DB73EB74091640050916500241B350B80
:101D9000E0910302F0910402E217F307A0F42E1B76
:101DA0003F0B2817390778F0AC014E5F5F4F2417BF
:101DB000350748F04E0F5F1F509304024093030213
:101DC000819391939FCFF0E0E0E09CCFCF93DF939E
:101DD0000097E9F0FC01329713821282A09105026C
:101DE000B0910602ED0130E020E01097A1F42081CF
:101DF0003181820F931F2091030230910402281732
:101E0000390709F061C0F0930402E0930302DF9107
:101E1000CF910895EA01CE17DF07E8F54A815B818B
:101E20009E0141155105B1F7E901FB83EA83499110
:101E30005991C40FD51FEC17FD0761F48081918182
:101E40000296840F951FE90199838883828193818B
:101E50009B838A83F0E0E0E012968D919C9113972A
:101E60000097B9F52D913C911197CD010296820F03
:101E7000931F20910302309104022817390739F685
:101E8000309751F51092060210920502B0930402A9
:101E9000A0930302BCCFD383C28340815181840FBE
:101EA000951FC817D90761F44E5F5F4F88819981EC
:101EB000480F591F518340838A819B81938382837A
:101EC0002115310509F0B0CFF0930602E093050229
:101ED0009ECFFD01DC01C0CF13821282D7CFB0E0CC
:101EE000A0E0E5E7FFE00C9447108C01009751F467
:101EF000CB010E944A0E8C01C801CDB7DEB7E0E1EC
:101F00000C946310FC01E60FF71F9C01225031096D
:101F1000E217F30708F49DC0D901CD91DC91119728
:101F2000C617D70798F0C530D10530F3CE01049716
:101F30008617970708F3C61BD70B2297C193D19337
:101F40006D937C93CF010E94E60ED6CF5B01AC1A55
:101F5000BD0A4C018C0E9D1EA0910502B091060297
:101F6000512C412CF12CE12C109731F5809103027A
:101F7000909104028815990509F05CC04616570631
:101F800008F058C08091600090916100009741F482
:101F90008DB79EB74091640050916500841B950BEE
:101FA000E817F90708F055C0F0930402E093030224
:101FB000F90171836083A0CF8D919C911197129646
:101FC0006C90129713967C901397A815B90559F544
:101FD0006C0142E0C40ED11CCA14DB0420F1AC0138
:101FE0004A195B09DA011296159780F062827382B2
:101FF00051834083D9016D937C93E114F10471F016
:10200000D7011396FC93EE93129776CF22968C0FFE
:102010009D1FF90191838083F301EFCFF0930602B6
:10202000E093050269CF4816590608F42C017D019A
:10203000D3019ACFCB010E944A0E7C01009749F050
:10204000AE01B8010E942C10C8010E94E60E870163
:1020500053CF10E000E050CFFB01DC0102C0019043
:102060000D9241505040D8F70895FB01DC018D914D
:10207000019080190110D9F3990B0895FB01DC013F
:1020800001900D920020E1F708952F923F924F9218
:102090005F926F927F928F929F92AF92BF92CF92F8
:1020A000DF92EF92FF920F931F93CF93DF93CDB701
:1020B000DEB7CA1BDB0B0FB6F894DEBF0FBECDBF79
:1020C00009942A88398848885F846E847D848C844A
:1020D0009B84AA84B984C884DF80EE80FD800C8153
:1020E0001B81AA81B981CE0FD11D0FB6F894DEBF36
:0C20F0000FBECDBFED010895F894FFCFA6
:1020FC00000007028000FF5A3134372A323538305D
:10210C0033363923414243444544544D4620696E8D
:10211C00697469616C6973656421005265616469F5
:10212C006E673D3E2000202E200000000000B90507
:0A213C007C06B505B8050D0A000089
:00000001FF
